:020000040000FA
:10000000880300200D030000150300001703000003
:10001000190300001B0300001D0300000000000086
:100020000000000000000000000000001F030000AE
:10003000210300000000000023030000250300004E
:100040004D05000099050000E5050000310600009F
:100050007D0600003103000033030000350300007B
:1000600037030000390300003B0300003D0300009C
:100070003F0300004103000043030000450300006C
:1000800047030000490300004B0300005D1C000013
:100090004F0300005103000053030000550300000C
:1000A00057030000590300005B0300005D030000DC
:1000B0005F03000061030000C90600006503000043
:1000C00067030000690300006B0300006D0300007C
:1000D0006F0300007103000073030000750300004C
:1000E0007703000079030000000000007B0300009C
:1000F0007D0300007F0300008103000083030000F4
:100100008503000087030000890300008B030000C3
:1001100000000000000000008D0300008F030000BD
:100120009103000093030000950300009703000073
:10013000990300009B0300009D0300009F03000043
:1001400000000000000000000000000000000000AF
:10015000A1030000A3030000A5030000A703000003
:10016000000000000000000000000000000000008F
:10017000000000000000000000000000000000007F
:10018000000000000000000000000000000000006F
:10019000000000000000000000000000000000005F
:1001A000000000000000000000000000000000004F
:1001B000A9030000AB030000811C0000AF03000096
:1001C000B1030000B3030000B5030000B703000053
:1001D000B9030000BB030000BD030000BF03000023
:1001E000C1030000C3030000C503000000000000BD
:1001F00000000000C7030000C9030000CB0300009B
:10020000CD030000CF03000000000000000000004C
:10021000D1030000D3030000D5030000D703000082
:10022000D9030000DB030000DD030000DF03000052
:10023000E1030000E3030000E5030000E703000022
:10024000E9030000EB030000ED030000EF030000F2
:10025000F1030000F3030000F5030000F7030000C2
:10026000F9030000FB030000FD03000000F002F8AA
:1002700000F03CF80AA090E8000C82448344AAF104
:100280000107DA4501D100F031F8AFF2090EBAE802
:100290000F0013F0010F18BFFB1A43F001031847BA
:1002A000D81F0000F81F0000103A24BF78C878C19A
:1002B000FAD8520724BF30C830C144BF04680C606C
:1002C000704700000023002400250026103A28BFB4
:1002D00078C1FBD8520728BF30C148BF0B607047B8
:1002E0001FB501F091FF1FBD10B510BD00F09BF8C8
:1002F0001146FFF7F5FF01F08FFD00F0B9F803B4E8
:10030000FFF7F2FF03BC00F0C1F800003F48804750
:100310003F480047FEE7FEE7FEE7FEE7FEE7FEE7B1
:10032000FEE7FEE7FEE7FEE7FEE7FEE7FEE7FEE7A5
:10033000FEE7FEE7FEE7FEE7FEE7FEE7FEE7FEE795
:10034000FEE7FEE7FEE7FEE7FEE7FEE7FEE7FEE785
:10035000FEE7FEE7FEE7FEE7FEE7FEE7FEE7FEE775
:10036000FEE7FEE7FEE7FEE7FEE7FEE7FEE7FEE765
:10037000FEE7FEE7FEE7FEE7FEE7FEE7FEE7FEE755
:10038000FEE7FEE7FEE7FEE7FEE7FEE7FEE7FEE745
:10039000FEE7FEE7FEE7FEE7FEE7FEE7FEE7FEE735
:1003A000FEE7FEE7FEE7FEE7FEE7FEE7FEE7FEE725
:1003B000FEE7FEE7FEE7FEE7FEE7FEE7FEE7FEE715
:1003C000FEE7FEE7FEE7FEE7FEE7FEE7FEE7FEE705
:1003D000FEE7FEE7FEE7FEE7FEE7FEE7FEE7FEE7F5
:1003E000FEE7FEE7FEE7FEE7FEE7FEE7FEE7FEE7E5
:1003F000FEE7FEE7FEE7FEE7FEE7FEE7FEE70000BA
:1004000004480549034A054B70470000C51B00001E
:100410006D02000088010020880300208801002070
:10042000704770477047754600F02CF8AE460500DF
:100430006946534620F00700854618B020B5FFF7FF
:10044000DFFFBDE820404FF000064FF000074FF0FF
:1004500000084FF0000B21F00701AC46ACE8C009E2
:10046000ACE8C009ACE8C009ACE8C0098D467047EB
:1004700010B50446AFF300802046BDE81040FFF7FA
:100480003EBF0000004870472401002001491820A9
:10049000ABBEFEE7260002007047000070B50025E5
:1004A000002400BF15E004EB84000C4901EB800040
:1004B000807808B101250EE004EB8401074A02EBC5
:1004C000810000F027F905460DB1012503E0601C0D
:1004D000C4B2022CE7DB00BF284670BD50220000EA
:1004E0002DE9F04105460E460027002400BF24E018
:1004F00004EB8400144901EB8000807808B10127E7
:100500001DE004EB8400104901EB8000007CA84250
:100510000ED104EB84020B4603EB8202517804EB0C
:10052000840213F82200324600F076FF074606E008
:100530000FB1012703E0601CC4B2022CD8DB00BF5E
:100540003846BDE8F08100005022000010B50024BC
:1005500000BF19E00E480068E04000F0010088B1DB
:100560000B48083000680121A140084308490831C0
:100570000860084850F8240018B1064951F82400D2
:10058000804703E0601CC4B2082CE3DB00BF10BD51
:10059000144400402800002010B5002400BF19E0DA
:1005A0000E480068E04000F0010088B10B480830B8
:1005B00000680121A1400843084908310860084843
:1005C00050F8240018B1064951F82400804703E090
:1005D000601CC4B2082CE3DB00BF10BD1454004003
:1005E0004800002010B5002400BF19E00E48006844
:1005F000E04000F0010088B10B480830006801219C
:10060000A1400843084908310860084850F8240010
:1006100018B1064951F82400804703E0601CC4B2B9
:10062000082CE3DB00BF10BD14640040680000200C
:1006300010B5002400BF19E00E480068E04000F04B
:10064000010088B10B48083000680121A14008432F
:10065000084908310860084850F8240018B10649D4
:1006600051F82400804703E0601CC4B2082CE3DB8F
:1006700000BF10BD147400408800002010B5002495
:1006800000BF19E00E480068E04000F0010088B1AA
:100690000B48083000680121A1400843084908318F
:1006A0000860084850F8240018B1064951F82400A1
:1006B000804703E0601CC4B2082CE3DB00BF10BD20
:1006C00014440240A800002010B5002400BF19E027
:1006D0000E480068E04000F0010088B10B48083087
:1006E00000680121A1400843084908310860084812
:1006F00050F8240018B1064951F82400804703E05F
:10070000601CC4B2082CE3DB00BF10BD14540240CF
:10071000C800002010B50146002009B90120FDE302
:100720000A78062A7ADA0A78FE4B9A5C012A0CD0FB
:10073000FD4A12680C780123A3401A43FA4B1A6051
:1007400001220B78F74CE25445E0F84B0A78042A72
:1007500005DA0A784FF0402404EB023204E00A780C
:10076000121FF34C04EB0232C2F820350A78042A37
:1007700005DA0A784FF0402303EB023204E00A78EE
:10078000121FEB4B03EB0232D2F824354C780122D6
:10079000A24013430A78042A05DA0A784FF040246D
:1007A00004EB023204E00A78121FE14C04EB02323F
:1007B000C2F8243500230A78042A05DA0A784FF0B3
:1007C000402404EB023204E00A78121FD84C04EBF8
:1007D0000232C2F820354A78082A7BDA8A78002A61
:1007E00079D10A78042A05DA0A784FF0402303EB1E
:1007F000023204E00A78121FCD4B03EB0232D2F82A
:1008000000344C780122A24093430A78042A06DA85
:100810000A784FF0402404EB023205E0F8E30A784E
:10082000121FC34C04EB0232C2F800348A79002A4A
:100830006ED10A78042A05DA0A784FF0402303EBD8
:10084000023204E00A78121FB94B03EB0232D2F8ED
:100850000C354C780122A24013430A78042A05DAA9
:100860000A784FF0402404EB023204E00A78121FA9
:10087000AF4C04EB0232C2F80C350A78042A05DAD0
:100880000A784FF0402303EB023204E00A78121F8B
:10089000A74B03EB0232D2F810354C780122A2406C
:1008A00093430A78042A05DA0A784FF0402404EBCF
:1008B000023204E00A78121F9D4C04EB0232C2F8A7
:1008C00010350A78042A07DA0A784FF0402303EB40
:1008D000023206E0EEE3DDE20A78121F944B03EBEE
:1008E0000232D2F814354C780122A24093430A78A0
:1008F000042A05DA0A784FF0402404EB023204E0BF
:100900000A78121F8A4C04EB0232C2F81435E0E078
:100910008A79012A6CD10A78042A05DA0A784FF01C
:10092000402303EB023204E00A78121F804B03EBF2
:100930000232D2F810354C780122A24013430A78D3
:10094000042A05DA0A784FF0402404EB023204E06E
:100950000A78121F764C04EB0232C2F810350A787E
:10096000042A05DA0A784FF0402303EB023204E050
:100970000A78121F6E4B03EB0232D2F80C354C781A
:100980000122A24093430A78042A05DA0A784FF03C
:10099000402404EB023204E00A78121F644C04EB9A
:1009A0000232C2F80C350A78042A05DA0A784FF0C8
:1009B000402303EB023204E00A78121F5C4B03EB86
:1009C0000232D2F814354C780122A24093430A78BF
:1009D000042A05DA0A784FF0402404EB023204E0DE
:1009E0000A78121F524C04EB0232C2F8143570E040
:1009F0008A79022A6CD10A78042A05DA0A784FF03B
:100A0000402303EB023204E00A78121F484B03EB49
:100A10000232D2F814354C780122A24013430A78EE
:100A2000042A05DA0A784FF0402404EB023204E08D
:100A30000A78121F3E4C04EB0232C2F814350A78D1
:100A4000042A05DA0A784FF0402303EB023204E06F
:100A50000A78121F364B03EB0232D2F80C354C7871
:100A60000122A24093430A78042A05DA0A784FF05B
:100A7000402404EB023204E00A78121F2C4C04EBF1
:100A80000232C2F80C350A78042A05DA0A784FF0E7
:100A9000402303EB023204E00A78121F244B03EBDD
:100AA0000232D2F810354C780122A24093430A78E2
:100AB000042A05DA0A784FF0402404EB023204E0FD
:100AC0000A78121F1A4C04EB0232C2F8103500E00B
:100AD0000720002805D1CA79012AFBD1CA680AB9C2
:100AE0000A20ACE30A7A052A7ADA0A78042A05DAB7
:100AF0000A784FF0402303EB023204E00A78121F19
:100B00000B4B03EB0232D2F810344C780122A24096
:100B100093430A78042A0DDA0A784FF0402404EB54
:100B200002320CE01400002008E60F404B434F4C0B
:100B3000004002400A78121FFA4C04EB0232C2F85D
:100B400010340B78F84C04EB43134C78CA6843F824
:100B500024200A7A032A7BDA0A78042A05DA0A783A
:100B60004FF0402303EB023204E00A78121FED4BF2
:100B700003EB0232D2F804344C780122A2409343B2
:100B80000A78042A05DA0A784FF0402404EB02328E
:100B900004E00A78121FE34C04EB0232C2F804347A
:100BA0000A7A022A25D10A78042A05DA0A784FF04F
:100BB000402303EB023204E00A78121FD94B03EB07
:100BC0000232D2F808344C780122A24013430A784A
:100BD000042A06DA0A784FF0402404EB023205E0DA
:100BE00056E10A78121FCF4C04EB0232C2F80834E7
:100BF00025E30A7A6ABB0A78042A05DA0A784FF0F4
:100C0000402303EB023204E00A78121FC54B03EBCA
:100C10000232D2F808344C780122A24093430A7879
:100C2000042A05DA0A784FF0402404EB023204E08B
:100C30000A78121FBB4C04EB0232C2F808340A785F
:100C4000042A07DA0A784FF0402303EB023206E069
:100C500065E01BE00A78121FB24B03EB0232D2F8B8
:100C60000C344C780122A24093430A78042A05DA16
:100C70000A784FF0402404EB023204E00A78121F95
:100C8000A84C04EB0232C2F80C34D8E20A78042AE9
:100C900005DA0A784FF0402303EB023204E00A78C9
:100CA000121FA04B03EB0232D2F808344C78012219
:100CB000A24093430A78042A05DA0A784FF04024C8
:100CC00004EB023204E00A78121F964C04EB023265
:100CD000C2F808340A78042A05DA0A784FF040236B
:100CE00003EB023204E00A78121F8E4B03EB023250
:100CF000D2F80C344C780122A24013430A78042A1B
:100D000005DA0A784FF0402404EB023204E00A7856
:100D1000121F844C04EB0232C2F80C348FE20A78C2
:100D2000042A05DA0A784FF0402303EB023204E08C
:100D30000A78121F7B4B03EB0232D2F804344C7852
:100D40000122A24013430A78042A05DA0A784FF0F8
:100D5000402404EB023204E00A78121F714C04EBC9
:100D60000232C2F804340A7A032A48D10A78042AE3
:100D700005DA0A784FF0402303EB023204E00A78E8
:100D8000121F684B03EB0232D2F808344C78012270
:100D9000A24093430A78042A05DA0A784FF04024E7
:100DA00004EB023204E00A78121F5E4C04EB0232BC
:100DB000C2F808340A78042A05DA0A784FF040238A
:100DC00003EB023204E00A78121F564B03EB0232A7
:100DD000D2F80C344C780122A24093430A78042ABA
:100DE00005DA0A784FF0402404EB023204E00A7876
:100DF000121F4C4C04EB0232C2F80C341FE20A788A
:100E0000042A05DA0A784FF0402303EB023204E0AB
:100E10000A78121F434B03EB0232D2F808344C78A5
:100E20000122A24093430A78042A05DA0A784FF097
:100E3000402404EB023204E00A78121F394C04EB20
:100E40000232C2F808340A78042A05DA0A784FF028
:100E5000402303EB023204E00A78121F314B03EB0C
:100E60000232D2F80C344C780122A24013430A78A3
:100E7000042A05DA0A784FF0402404EB023204E039
:100E80000A78121F274C04EB0232C2F80C34D6E168
:100E90000920D4E18A78012A7DD10A78042A05DA6A
:100EA0000A784FF0402303EB023204E00A78121F65
:100EB0001C4B03EB0232D2F800344C780122A240E2
:100EC00013430A78042A05DA0A784FF0402404EB29
:100ED000023204E00A78121F124C04EB0232C2F80C
:100EE00000344A7992BB0A78042A05DA0A784FF06E
:100EF000402303EB023204E00A78121F094B03EB94
:100F00000232D2F800354C780122A24013430A780D
:100F1000042A0BDA0A784FF0402400E0BFE104EB2A
:100F2000023208E000400240280000200A78121F28
:100F3000F84C04EB0232C2F800350A78042A06DACB
:100F40000A784FF0402303EB023205E040E00A78D4
:100F5000121FF04B03EB0232D2F804354C78012219
:100F6000A24093430A78042A05DA0A784FF0402415
:100F700004EB023204E00A78121FE64C04EB023262
:100F8000C2F804350A78042A06DA0A784FF04023BA
:100F900003EB023205E051E10A78121FDD4B03EB4F
:100FA0000232D2F808354C780122A24093430A78E5
:100FB000042A05DA0A784FF0402404EB023204E0F8
:100FC0000A78121FD34C04EB0232C2F80835E3E072
:100FD0004A79012A6FD10A78042A05DA0A784FF093
:100FE000402303EB023204E00A78121FC94B03EBE3
:100FF0000232D2F804354C780122A24013430A7819
:10100000042A06DA0A784FF0402404EB023205E0A5
:10101000FEE10A78121FBF4C04EB0232C2F804351D
:101020000A78042A05DA0A784FF0402303EB0232EB
:1010300004E00A78121FB74B03EB0232D2F80035F6
:101040004C780122A24093430A78042A05DA0A78F0
:101050004FF0402404EB023204E00A78121FAD4C3A
:1010600004EB0232C2F800350A78042A05DA0A785D
:101070004FF0402303EB023204E00A78121FA54B25
:1010800003EB0232D2F808354C780122A240934398
:101090000A78042A05DA0A784FF0402404EB023279
:1010A00004E00A78121F9B4C04EB0232C2F80835A8
:1010B00072E000E0AAE14A79022A6CD10A78042A97
:1010C00005DA0A784FF0402303EB023204E00A7895
:1010D000121F904B03EB0232D2F808354C780122F4
:1010E000A24013430A78042A05DA0A784FF0402414
:1010F00004EB023204E00A78121F864C04EB023241
:10110000C2F808350A78042A05DA0A784FF0402335
:1011100003EB023204E00A78121F7E4B03EB02322B
:10112000D2F800354C780122A24093430A78042A71
:1011300005DA0A784FF0402404EB023204E00A7822
:10114000121F744C04EB0232C2F800350A78042AEC
:1011500005DA0A784FF0402303EB023204E00A7804
:10116000121F6C4B03EB0232D2F804354C7801228B
:10117000A24093430A78042A05DA0A784FF0402403
:1011800004EB023204E00A78121F624C04EB0232D4
:10119000C2F8043500E0062030BB0A79012A24D1C8
:1011A0000A78042A05DA0A784FF0402303EB02326A
:1011B00004E00A78121F574B03EB0232D2F8FC33DB
:1011C0004C780122A24013430A78042A05DA0A78EF
:1011D0004FF0402404EB023204E00A78121F4D4C19
:1011E00004EB0232C2F8FC3329E00A7922BB0A7808
:1011F000042A05DA0A784FF0402303EB023204E0B8
:101200000A78121F434B03EB0232D2F8FC334C78BE
:101210000122A24093430A78042A05DA0A784FF0A3
:10122000402404EB023204E00A78121F394C04EB2C
:101230000232C2F8FC3302E0082000E0042070BB58
:10124000CA786ABB0A78042A05DA0A784FF0402384
:1012500003EB023204E00A78121F2E4B03EB02323A
:10126000D2F820344C780122A24093430A78042A11
:1012700005DA0A784FF0402404EB023204E00A78E1
:10128000121F244C04EB0232C2F820340A78042ADC
:1012900007DA0A784FF0402303EB023206E0B8E0A9
:1012A00042E00A78121F1B4B03EB0232D2F81C35C6
:1012B0004C780122A24013430A78042A05DA0A78FE
:1012C0004FF0402404EB023204E00A78121F114C64
:1012D00004EB0232C2F81C350A78042A05DA0A78CF
:1012E0004FF0402303EB023204E00A78121F094B4F
:1012F00003EB0232D2F828354C780122A240934306
:101300000A78042A08DA0A784FF0402404EB023203
:1013100007E00000004002400A78121F3D4C04EB39
:101320000232C2F8283574E0CA78012A6CD10A78F2
:10133000042A05DA0A784FF0402303EB023204E076
:101340000A78121F334B03EB0232D2F820344C7868
:101350000122A24093430A78042A05DA0A784FF062
:10136000402404EB023204E00A78121F294C04EBFB
:101370000232C2F820340A78042A05DA0A784FF0DB
:10138000402303EB023204E00A78121F214B03EBE7
:101390000232D2F81C354C780122A24093430A78DD
:1013A000042A05DA0A784FF0402404EB023204E004
:1013B0000A78121F174C04EB0232C2F81C350A7867
:1013C000042A05DA0A784FF0402303EB023204E0E6
:1013D0000A78121F0F4B03EB0232D2F828354C78F3
:1013E0000122A24013430A78042A05DA0A784FF052
:1013F000402404EB023204E00A78121F054C04EB8F
:101400000232C2F8283504E0052002E0032000E0A3
:10141000022010BD0040024030B503460020062BDC
:1014200018DA082914DA8AB1042B04DA4FF04024C0
:1014300004EB033403E01C1F074D05EB0434D4F820
:10144000FC43CC4004F00104147004E0012002E0ED
:10145000032000E0022030BD0040024030B50246CB
:101460000020062A21DA08291DDA042A04DA4FF0BE
:10147000402303EB023303E0131F0D4C04EB033353
:10148000D3F8FC4301238B405C40042A04DA4FF07C
:10149000402303EB023303E0131F054D05EB033339
:1014A000C3F8FC4302E0032000E0022030BD00004E
:1014B0000040024070B503460020062B44DA08299C
:1014C00040DA012A1DD1042B04DA4FF0402404EB4A
:1014D000033403E01C1F1D4D05EB0434D4F8FC530A
:1014E00001248C402543042B04DA4FF0402404EB04
:1014F000033403E01C1F154E06EB0434C4F8FC5300
:1015000023E0EAB9042B04DA4FF0402404EB03345F
:1015100003E01C1F0D4D05EB0434D4F8FC530124EB
:101520008C40A543042B04DA4FF0402404EB033431
:1015300003E01C1F054E06EB0434C4F8FC5304E022
:10154000082002E0032000E0022070BD00400240BD
:1015500070B5044600250C2C36DA082C03DA1C483A
:1015600000EB043004E0A4F108001A4901EB00305C
:10157000806900F0010008B1052526E0082C03DA97
:10158000134800EB043004E0A4F10800114901EB1A
:101590000030806940F00101082C03DA0C4800EBB0
:1015A000043004E0A4F108000A4A02EB0030816133
:1015B0001CB9132000F096FB04E0062C02D15E203B
:1015C00000F090FB62B600E00125284670BD0000E7
:1015D0000000034000C0044030B5024600201178EE
:1015E0000AB90420B9E00C2975DA5C4B5B5C002B6E
:1015F00072D1062907DA5A4B1B6801248C40234319
:10160000574C236009E0564B58331B688C1F01254B
:10161000A5402B43524C58342360082903DA514B20
:1016200003EB013304E0A1F108034F4C04EB033357
:10163000DB6823F00104082903DA4A4B03EB01338A
:1016400004E0A1F10803484D05EB0333DC60537857
:10165000062B7DDA5378022B70DA93786BB9042469
:10166000082903DA3F4B03EB013304E0A1F108033F
:101670003D4D05EB03331C6011E09378012B0DD138
:101680000024082903DA374B03EB013304E0A1F10E
:101690000803354D05EB03331C6000E003200028F0
:1016A0005BD153786BB90124082903DA2D4B03EB86
:1016B000013304E0A1F108032B4D05EB03335C601B
:1016C00011E05378012B0ED10224082905DA254BAD
:1016D00003EB013306E03FE03CE0A1F10803224DBB
:1016E00005EB03335C60D378012B21D153680BB930
:1016F00006201DE0082903DA1A4B03EB013304E04E
:10170000A1F10803184C04EB03339B6923F0010497
:10171000082903DA134B03EB013304E0A1F10803BA
:10172000114D05EB03339C61104C536844F8213094
:1017300001230A4C635410E00AE0FFE75378022BC0
:101740000BD05378032B08D05378042B05D004E03A
:10175000022002E0052000E0012030BDE80000206A
:1017600004E60F400000034000C00440F4000020E5
:101770002DE9F04104460D46164600270C2C2ADAC6
:10178000082C03DA164800EB043004E0A4F108004A
:10179000144901EB0030806900F0010018B11248D3
:1017A000005D012801D0052716E000200F490870D0
:1017B00005FB06F0642190FBF1F00D490880084616
:1017C0000088281A0B490880012208460188204613
:1017D00000F012F800E001273846BDE8F081000073
:1017E0000000034000C00440E80000202600002064
:1017F00022000020240000202DE9F0412DED088B6F
:1018000004460E46154600279FED630BB0EE408A56
:10181000F0EE608A9FED620BB0EE409AF0EE609AB7
:101820000C2C74DA6048005D012871D1032D70DA48
:101830009DB9304600F081FC41EC1B0B9FED5B0B2A
:1018400053EC102B00F0F4FA41EC1A0B53EC182B6C
:1018500000F0EEFA41EC190B28E0012D13D13046CF
:1018600000F06BFC41EC1B0B9FED520B53EC102B6B
:1018700000F0DEFA41EC1A0B53EC182B00F0D8FA0A
:1018800041EC190B12E0304600F057FC41EC1B0B09
:101890009FED4A0B53EC102B00F0CAFA41EC1A0BE7
:1018A00053EC182B00F0C4FA41EC190B51EC190B56
:1018B00000F016FC0146082C03DA424800EB043025
:1018C00004E0A4F10800404A02EB00308162082CD9
:1018D00003DA3C4800EB043004E0A4F108003A4984
:1018E00001EB0030C06840F00101082C03DA3548F4
:1018F00000EB043004E0A4F10800334A02EB0030AE
:10190000C160082C06DA2F4800EB043007E03DE008
:101910003AE037E0A4F108002B4901EB0030806980
:1019200000F0010068BB00BF082C03DA254800EB7B
:10193000043004E0A4F10800234901EB0030C06941
:1019400000F001000028EFD0082C03DA1D4800EB5E
:10195000043004E0A4F108001B4901EB0030406AA8
:1019600040F00101082C03DA164800EB043004E0D3
:10197000A4F10800144A02EB00304162204600F056
:1019800025F804E0072702E0052700E00127384694
:10199000BDEC088BBDE8F0818DEDB5A0F7C6703EBB
:1019A0000000000000000000E8000020000000002F
:1019B00080842E410000000000408F4000000000A5
:1019C0000000F03F0000034000C0044010B5014695
:1019D00000200C291ADA082903DA0D4A02EB013239
:1019E00004E0A1F108020B4B03EB0232D26822F0B3
:1019F0000103082903DA064A02EB013204E0A1F1EF
:101A00000802044C04EB0232D36000E0012010BD58
:101A10000000034000C0044070B5044600250026C5
:101A20002046FFF795FD064606B10125284670BD04
:101A300070B50446002500262046FFF7CDFD06467A
:101A400006B10125284670BD2DE9F04104460D463A
:101A500016460027B846324629462046FFF788FE3C
:101A60008046B8F1000F00D001273846BDE8F0816C
:101A70002DE9F04104460D4616460027B846324689
:101A800029462046FFF7B8FE8046B8F1000F00D087
:101A900001273846BDE8F08170B5044600250026D0
:101AA0002046FFF793FF064606B10125284670BD84
:101AB00070B50025002400BF16E004EB84000D493A
:101AC00001EB80008078012801D001250EE004EBB5
:101AD0008401084A02EB8100FEF71CFE05460DB1A9
:101AE000012503E0601CC4B2032CE6DB00BF2846DE
:101AF00070BD00001422000070B5054600260024C9
:101B000000BF25E004EB8400144901EB80008078DD
:101B1000012801D001261DE004EB84000F4901EBF0
:101B20008000007CA8420ED104EB84020B4603EB3C
:101B30008202517804EB840213F822000022FFF79E
:101B4000B9FC064606E00EB1012603E0601CC4B2F3
:101B5000032CD7DB00BF304670BD0000142200000C
:101B600070B505460026002400BF24E004EB840085
:101B7000134901EB80008078012801D001261CE088
:101B800004EB84000E4901EB8000007CA8420DD1DB
:101B900004EB84020B4603EB8202517804EB8402CF
:101BA00013F82200FFF75AFC064606E00EB10126A4
:101BB00003E0601CC4B2032CD8DB00BF304670BD0C
:101BC000142200001B49096841F47001194A116090
:101BD00019491A4A11671A4911661A4911661A49B0
:101BE0001167002000E0401CB0F57A7FFBD3174955
:101BF000124A116616491167002000E0401CB0F53A
:101C00007A7FFBD313490D4A116600BF0B49096D5A
:101C100001F040014029F9D10F49084A11664FF0FF
:101C2000C0711167002000E0401C42F21071884230
:101C3000FAD3704788ED00E01028800700E00F40DD
:101C4000D13A8E07422D9E0100288001420D9E014F
:101C500000088001420DDE014205DE0110B5064894
:101C6000006840B10548C06820F001000349C86021
:101C700001490868804710BDF400002000000340BF
:101C800010B51348806910B311498869804711481D
:101C9000406A40F001000F4948620620FFF796FEB7
:101CA0000D480078012809D101220C48018806203E
:101CB000FFF7A2FD00200849087008E0012208484B
:101CC00001880620FFF798FD01200349087010BD28
:101CD000F4000020006003402600002024000020C3
:101CE0002200002000280DDB00BF00BF00F01F0213
:101CF000012191404209920002F1E022C2F8001154
:101D000000BF00BF7047000010B5FFF7D1FEFEF71F
:101D1000C5FB0548FFF78CFE0448FFF789FE062047
:101D2000FFF77AFE10BD0000040000200C00002028
:101D300008B50120009069E069460020FEF7D0FB5D
:101D40009DF80000B0B903E069460020FEF7C8FB2B
:101D50009DF800000028F7D00122C8210020FFF7DD
:101D600087FE01202A4908702A480078401C29492A
:101D700008704BE027480078002847D025480078B5
:101D8000012810D12248007801283FD10220FFF716
:101D9000B3FE1E224FF4FA710620FFF755FE002015
:101DA0001B49087032E01B480078022810D11848FF
:101DB000007801282AD10220FFF79EFE3C224FF432
:101DC000FA710620FFF7D4FC0020114908701DE0CD
:101DD00010480078032810D10D480078012815D14B
:101DE0000220FFF789FE5A224FF4FA710620FFF70E
:101DF000BFFC00200649087008E00620FFF74CFEF3
:101E00000220FFF779FE00200249087094E70000E5
:101E1000010000200000002010B5FFF775FFFFF75C
:101E200087FF002010BD10B50220FFF799FE10BDFE
:101E30002DE9C04130B4DFF8A0C23CEA111418BF4C
:101E40003CEA131400F0EC8081EA03051CEA11144B
:101E500044EAD57418BF1CEA131500F0C780A4EB40
:101E600005044FF0004545EAC12145EAC32341EA94
:101E7000505143EA525304F17F74994204F50034FF
:101E80004FEAC0204FEAC22208BF904200F09C8077
:101E90004FEA13650FF24016765D4FEA134506FBD5
:101EA00005F7C7F1807706FB07F74FEAD737A7FB9F
:101EB00003687642C8F58038A7FB06CE38BFA8F184
:101EC000010807FB08E64FF0000EA6FB028CE6FBBC
:101ED00003CEDCF1000CCEF1004E38BFAEF1010EA6
:101EE000A6FB0C584FF000074FF00005E6FB0E87ED
:101EF000A1FB08C6A0FB07CE16EB0E0645F10005B8
:101F0000E1FB076515F1E04E7EBFA4F580345FEA82
:101F100046066D4116F1800745F100054FEA172787
:101F20004FEA066647EA0567A6F1DE46B6F1805F2E
:101F30004FEA15251FD9384624F0010C05EBC47172
:101F4000BCF1FE6F01EB0C1102D8F0BCBDE80081C2
:101F500024425CBF01F5801E9EEAC47F02D4F0BC1F
:101F6000BDE80081244238D4F0BCA1F1C041BDE8F5
:101F7000004100F043B94FEAD22242EA43524FEA0D
:101F8000D323A7FB02864FEAD02040EA415007FB4B
:101F900003661EEA0E0F4FEAD12105FB026658BF09
:101FA000A6EB0056B6EB00564FEA520E4EEAC37E41
:101FB00018EB0E0E56EB530EBDD518EB02085E4122
:101FC0007F1C55F10005B6E74FF480154FF0000770
:101FD0004FF000064FF00008ADE7F0BC4FF00000F6
:101FE00001F1C04101F00041BDE8008111EA0C1F80
:101FF0000CEA131500D00CE013EA0C1F00F025804A
:102000004FF00000F0BC81EA030101F00041BDE89F
:102010000081F0BCBDE8004181EA030100F0EEB8A8
:10202000F0BCBDE8004170B500F09AF8097EFC3EB6
:1020300000F007B881EA03014FF0000001F0004111
:10204000704781EA030100F0D9B8F0BCBDE8004157
:102050004FF0000021497047FFFDFBF9F7F5F4F25E
:10206000F0EEEDEBE9E8E6E4E3E1E0DEDDDBDAD833
:10207000D7D5D4D3D1D0CFCDCCCBCAC8C7C6C5C491
:10208000C2C1C0BFBEBDBCBBBAB9B8B7B6B5B4B3A8
:10209000B2B1B0AFAEADACABAAA9A8A8A7A6A5A493
:1020A000A3A3A2A1A09F9F9E9D9C9C9B9A99999857
:1020B0009797969595949393929191908F8F8E8EFA
:1020C0008D8C8C8B8B8A8989888887878685858487
:1020D00084838382828181800000FF070000F87F73
:1020E0004FEA1153A3F58063D3F11E03A8BFD3F1C8
:1020F000200C08DB4FF0004242EAC12252EA505263
:1021000032FA03F0704709420BD4102BC4BF0020F1
:10211000704703F5787CBCF1FF3F05D04FF0FF30EE
:1021200070474FF00000704770B500F019F800BF1D
:102130004992248000207047F0E7B0FA80F310FA4B
:1021400003F10AD0C3F11D0303F580634FEA415048
:102150004FEA035202EBD12170474FF00000704765
:102160000EF1020E2EF0030E5EF8046B364205D41B
:10217000012A43EB030515F5001F12D8012841EB96
:10218000010C1CF5001F0CD80ED14FEAD17C15F5BF
:10219000001F0CEB4C0C0CF1020C08BF4CEBD37C79
:1021A00004E04FF0080C01E04FEAD37C0CEB4C0547
:1021B00026FA05F606F00706B6F1040C06D20EEB79
:1021C000860CBDE870404CF0010C6047DFE80CF075
:1021D000090B02024FF000414FF00000A1F5002171
:1021E00070BD19461046012851EB010418BFD4F503
:1021F000001484BF002001F0004170BD0808A0F564
:1022000000114FEA310170474FF04070E1EE100AC3
:102210007047000005010100000000000000000000
:1022200000000000000000000502010000000000A6
:102230000000000000000000010000000503010094
:10224000000000000000000000000000020000008C
:102250000504000000000100000000000000000074
:102260000000000005000000000001000000000068
:102270000000000001000000982200000000002083
:1022800028000000A8020000C02200002800002052
:1022900060030000C402000000000000060000010E
:1022A000271E0000000000000000000000000000E9
:1022B000000000000000000000000000000000001E
:040000050000030DE7
:00000001FF
