:020000040000FA
:10000000300300200D03000015030000170300005B
:10001000190300001B0300001D0300000000000086
:100020000000000000000000000000001F030000AE
:10003000210300000000000023030000250300004E
:100040004D05000099050000E5050000310600009F
:100050007D0600003103000033030000350300007B
:1000600037030000390300003B0300003D0300009C
:100070003F0300004103000043030000450300006C
:1000800047030000490300004B0300004D0300003C
:100090004F0300005103000053030000550300000C
:1000A00057030000590300005B0300005D030000DC
:1000B0005F03000061030000C90600006503000043
:1000C00067030000690300006B0300006D0300007C
:1000D0006F0300007103000073030000750300004C
:1000E0007703000079030000000000007B0300009C
:1000F0007D0300007F0300008103000083030000F4
:100100008503000087030000890300008B030000C3
:1001100000000000000000008D0300008F030000BD
:100120009103000093030000950300009703000073
:10013000990300009B0300009D0300009F03000043
:1001400000000000000000000000000000000000AF
:10015000A1030000A3030000A5030000A703000003
:10016000000000000000000000000000000000008F
:10017000000000000000000000000000000000007F
:10018000000000000000000000000000000000006F
:10019000000000000000000000000000000000005F
:1001A000000000000000000000000000000000004F
:1001B000A9030000AB030000AD030000AF03000083
:1001C000B1030000B3030000B5030000B703000053
:1001D000B9030000BB030000BD030000BF03000023
:1001E000C1030000C3030000C503000000000000BD
:1001F00000000000C7030000C9030000CB0300009B
:10020000CD030000CF03000000000000000000004C
:10021000D1030000D3030000D5030000D703000082
:10022000D9030000DB030000DD030000DF03000052
:10023000E1030000E3030000E5030000E703000022
:10024000E9030000EB030000ED030000EF030000F2
:10025000F1030000F3030000F5030000F7030000C2
:10026000F9030000FB030000FD03000000F002F8AA
:1002700000F03CF80AA090E8000C82448344AAF104
:100280000107DA4501D100F031F8AFF2090EBAE802
:100290000F0013F0010F18BFFB1A43F001031847BA
:1002A0005C1500007C150000103A24BF78C878C1A6
:1002B000FAD8520724BF30C830C144BF04680C606C
:1002C000704700000023002400250026103A28BFB4
:1002D00078C1FBD8520728BF30C148BF0B607047B8
:1002E0001FB501F053FA1FBD10B510BD00F09BF80B
:1002F0001146FFF7F5FF01F0E7F900F0B9F803B494
:10030000FFF7F2FF03BC00F0C1F800003F48804750
:100310003F480047FEE7FEE7FEE7FEE7FEE7FEE7B1
:10032000FEE7FEE7FEE7FEE7FEE7FEE7FEE7FEE7A5
:10033000FEE7FEE7FEE7FEE7FEE7FEE7FEE7FEE795
:10034000FEE7FEE7FEE7FEE7FEE7FEE7FEE7FEE785
:10035000FEE7FEE7FEE7FEE7FEE7FEE7FEE7FEE775
:10036000FEE7FEE7FEE7FEE7FEE7FEE7FEE7FEE765
:10037000FEE7FEE7FEE7FEE7FEE7FEE7FEE7FEE755
:10038000FEE7FEE7FEE7FEE7FEE7FEE7FEE7FEE745
:10039000FEE7FEE7FEE7FEE7FEE7FEE7FEE7FEE735
:1003A000FEE7FEE7FEE7FEE7FEE7FEE7FEE7FEE725
:1003B000FEE7FEE7FEE7FEE7FEE7FEE7FEE7FEE715
:1003C000FEE7FEE7FEE7FEE7FEE7FEE7FEE7FEE705
:1003D000FEE7FEE7FEE7FEE7FEE7FEE7FEE7FEE7F5
:1003E000FEE7FEE7FEE7FEE7FEE7FEE7FEE7FEE7E5
:1003F000FEE7FEE7FEE7FEE7FEE7FEE7FEE70000BA
:1004000004480549034A054B7047000011160000D7
:100410006D02000030010020300300203001002078
:10042000704770477047754600F02CF8AE460500DF
:100430006946534620F00700854618B020B5FFF7FF
:10044000DFFFBDE820404FF000064FF000074FF0FF
:1004500000084FF0000B21F00701AC46ACE8C009E2
:10046000ACE8C009ACE8C009ACE8C0098D467047EB
:1004700010B50446AFF300802046BDE81040FFF7FA
:100480003EBF000000487047D000002001491820FE
:10049000ABBEFEE7260002007047000070B50025E5
:1004A000002400BF15E004EB84000C4901EB800040
:1004B000807808B101250EE004EB8401074A02EBC5
:1004C000810000F027F905460DB1012503E0601C0D
:1004D000C4B2022CE7DB00BF284670BDD417000071
:1004E0002DE9F04105460E460027002400BF24E018
:1004F00004EB8400144901EB8000807808B10127E7
:100500001DE004EB8400104901EB8000007CA84250
:100510000ED104EB84020B4603EB8202517804EB0C
:10052000840213F82200324600F076FF074606E008
:100530000FB1012703E0601CC4B2022CD8DB00BF5E
:100540003846BDE8F0810000D417000010B5002443
:1005500000BF19E00E480068E04000F0010088B1DB
:100560000B48083000680121A140084308490831C0
:100570000860084850F8240018B1064951F82400D2
:10058000804703E0601CC4B2082CE3DB00BF10BD51
:10059000144400401000002010B5002400BF19E0F2
:1005A0000E480068E04000F0010088B10B480830B8
:1005B00000680121A1400843084908310860084843
:1005C00050F8240018B1064951F82400804703E090
:1005D000601CC4B2082CE3DB00BF10BD1454004003
:1005E0003000002010B5002400BF19E00E4800685C
:1005F000E04000F0010088B10B480830006801219C
:10060000A1400843084908310860084850F8240010
:1006100018B1064951F82400804703E0601CC4B2B9
:10062000082CE3DB00BF10BD146400405000002024
:1006300010B5002400BF19E00E480068E04000F04B
:10064000010088B10B48083000680121A14008432F
:10065000084908310860084850F8240018B10649D4
:1006600051F82400804703E0601CC4B2082CE3DB8F
:1006700000BF10BD147400407000002010B50024AD
:1006800000BF19E00E480068E04000F0010088B1AA
:100690000B48083000680121A1400843084908318F
:1006A0000860084850F8240018B1064951F82400A1
:1006B000804703E0601CC4B2082CE3DB00BF10BD20
:1006C000144402409000002010B5002400BF19E03F
:1006D0000E480068E04000F0010088B10B48083087
:1006E00000680121A1400843084908310860084812
:1006F00050F8240018B1064951F82400804703E05F
:10070000601CC4B2082CE3DB00BF10BD14540240CF
:10071000B000002010B50146002009B90120FDE31A
:100720000A78062A7ADA0A78FE4B9A5C012A0CD0FB
:10073000FD4A12680C780123A3401A43FA4B1A6051
:1007400001220B78F74CE25445E0F84B0A78042A72
:1007500005DA0A784FF0402404EB023204E00A780C
:10076000121FF34C04EB0232C2F820350A78042A37
:1007700005DA0A784FF0402303EB023204E00A78EE
:10078000121FEB4B03EB0232D2F824354C780122D6
:10079000A24013430A78042A05DA0A784FF040246D
:1007A00004EB023204E00A78121FE14C04EB02323F
:1007B000C2F8243500230A78042A05DA0A784FF0B3
:1007C000402404EB023204E00A78121FD84C04EBF8
:1007D0000232C2F820354A78082A7BDA8A78002A61
:1007E00079D10A78042A05DA0A784FF0402303EB1E
:1007F000023204E00A78121FCD4B03EB0232D2F82A
:1008000000344C780122A24093430A78042A06DA85
:100810000A784FF0402404EB023205E0F8E30A784E
:10082000121FC34C04EB0232C2F800348A79002A4A
:100830006ED10A78042A05DA0A784FF0402303EBD8
:10084000023204E00A78121FB94B03EB0232D2F8ED
:100850000C354C780122A24013430A78042A05DAA9
:100860000A784FF0402404EB023204E00A78121FA9
:10087000AF4C04EB0232C2F80C350A78042A05DAD0
:100880000A784FF0402303EB023204E00A78121F8B
:10089000A74B03EB0232D2F810354C780122A2406C
:1008A00093430A78042A05DA0A784FF0402404EBCF
:1008B000023204E00A78121F9D4C04EB0232C2F8A7
:1008C00010350A78042A07DA0A784FF0402303EB40
:1008D000023206E0EEE3DDE20A78121F944B03EBEE
:1008E0000232D2F814354C780122A24093430A78A0
:1008F000042A05DA0A784FF0402404EB023204E0BF
:100900000A78121F8A4C04EB0232C2F81435E0E078
:100910008A79012A6CD10A78042A05DA0A784FF01C
:10092000402303EB023204E00A78121F804B03EBF2
:100930000232D2F810354C780122A24013430A78D3
:10094000042A05DA0A784FF0402404EB023204E06E
:100950000A78121F764C04EB0232C2F810350A787E
:10096000042A05DA0A784FF0402303EB023204E050
:100970000A78121F6E4B03EB0232D2F80C354C781A
:100980000122A24093430A78042A05DA0A784FF03C
:10099000402404EB023204E00A78121F644C04EB9A
:1009A0000232C2F80C350A78042A05DA0A784FF0C8
:1009B000402303EB023204E00A78121F5C4B03EB86
:1009C0000232D2F814354C780122A24093430A78BF
:1009D000042A05DA0A784FF0402404EB023204E0DE
:1009E0000A78121F524C04EB0232C2F8143570E040
:1009F0008A79022A6CD10A78042A05DA0A784FF03B
:100A0000402303EB023204E00A78121F484B03EB49
:100A10000232D2F814354C780122A24013430A78EE
:100A2000042A05DA0A784FF0402404EB023204E08D
:100A30000A78121F3E4C04EB0232C2F814350A78D1
:100A4000042A05DA0A784FF0402303EB023204E06F
:100A50000A78121F364B03EB0232D2F80C354C7871
:100A60000122A24093430A78042A05DA0A784FF05B
:100A7000402404EB023204E00A78121F2C4C04EBF1
:100A80000232C2F80C350A78042A05DA0A784FF0E7
:100A9000402303EB023204E00A78121F244B03EBDD
:100AA0000232D2F810354C780122A24093430A78E2
:100AB000042A05DA0A784FF0402404EB023204E0FD
:100AC0000A78121F1A4C04EB0232C2F8103500E00B
:100AD0000720002805D1CA79012AFBD1CA680AB9C2
:100AE0000A20ACE30A7A052A7ADA0A78042A05DAB7
:100AF0000A784FF0402303EB023204E00A78121F19
:100B00000B4B03EB0232D2F810344C780122A24096
:100B100093430A78042A0DDA0A784FF0402404EB54
:100B200002320CE00100002008E60F404B434F4C1E
:100B3000004002400A78121FFA4C04EB0232C2F85D
:100B400010340B78F84C04EB43134C78CA6843F824
:100B500024200A7A032A7BDA0A78042A05DA0A783A
:100B60004FF0402303EB023204E00A78121FED4BF2
:100B700003EB0232D2F804344C780122A2409343B2
:100B80000A78042A05DA0A784FF0402404EB02328E
:100B900004E00A78121FE34C04EB0232C2F804347A
:100BA0000A7A022A25D10A78042A05DA0A784FF04F
:100BB000402303EB023204E00A78121FD94B03EB07
:100BC0000232D2F808344C780122A24013430A784A
:100BD000042A06DA0A784FF0402404EB023205E0DA
:100BE00056E10A78121FCF4C04EB0232C2F80834E7
:100BF00025E30A7A6ABB0A78042A05DA0A784FF0F4
:100C0000402303EB023204E00A78121FC54B03EBCA
:100C10000232D2F808344C780122A24093430A7879
:100C2000042A05DA0A784FF0402404EB023204E08B
:100C30000A78121FBB4C04EB0232C2F808340A785F
:100C4000042A07DA0A784FF0402303EB023206E069
:100C500065E01BE00A78121FB24B03EB0232D2F8B8
:100C60000C344C780122A24093430A78042A05DA16
:100C70000A784FF0402404EB023204E00A78121F95
:100C8000A84C04EB0232C2F80C34D8E20A78042AE9
:100C900005DA0A784FF0402303EB023204E00A78C9
:100CA000121FA04B03EB0232D2F808344C78012219
:100CB000A24093430A78042A05DA0A784FF04024C8
:100CC00004EB023204E00A78121F964C04EB023265
:100CD000C2F808340A78042A05DA0A784FF040236B
:100CE00003EB023204E00A78121F8E4B03EB023250
:100CF000D2F80C344C780122A24013430A78042A1B
:100D000005DA0A784FF0402404EB023204E00A7856
:100D1000121F844C04EB0232C2F80C348FE20A78C2
:100D2000042A05DA0A784FF0402303EB023204E08C
:100D30000A78121F7B4B03EB0232D2F804344C7852
:100D40000122A24013430A78042A05DA0A784FF0F8
:100D5000402404EB023204E00A78121F714C04EBC9
:100D60000232C2F804340A7A032A48D10A78042AE3
:100D700005DA0A784FF0402303EB023204E00A78E8
:100D8000121F684B03EB0232D2F808344C78012270
:100D9000A24093430A78042A05DA0A784FF04024E7
:100DA00004EB023204E00A78121F5E4C04EB0232BC
:100DB000C2F808340A78042A05DA0A784FF040238A
:100DC00003EB023204E00A78121F564B03EB0232A7
:100DD000D2F80C344C780122A24093430A78042ABA
:100DE00005DA0A784FF0402404EB023204E00A7876
:100DF000121F4C4C04EB0232C2F80C341FE20A788A
:100E0000042A05DA0A784FF0402303EB023204E0AB
:100E10000A78121F434B03EB0232D2F808344C78A5
:100E20000122A24093430A78042A05DA0A784FF097
:100E3000402404EB023204E00A78121F394C04EB20
:100E40000232C2F808340A78042A05DA0A784FF028
:100E5000402303EB023204E00A78121F314B03EB0C
:100E60000232D2F80C344C780122A24013430A78A3
:100E7000042A05DA0A784FF0402404EB023204E039
:100E80000A78121F274C04EB0232C2F80C34D6E168
:100E90000920D4E18A78012A7DD10A78042A05DA6A
:100EA0000A784FF0402303EB023204E00A78121F65
:100EB0001C4B03EB0232D2F800344C780122A240E2
:100EC00013430A78042A05DA0A784FF0402404EB29
:100ED000023204E00A78121F124C04EB0232C2F80C
:100EE00000344A7992BB0A78042A05DA0A784FF06E
:100EF000402303EB023204E00A78121F094B03EB94
:100F00000232D2F800354C780122A24013430A780D
:100F1000042A0BDA0A784FF0402400E0BFE104EB2A
:100F2000023208E000400240100000200A78121F40
:100F3000F84C04EB0232C2F800350A78042A06DACB
:100F40000A784FF0402303EB023205E040E00A78D4
:100F5000121FF04B03EB0232D2F804354C78012219
:100F6000A24093430A78042A05DA0A784FF0402415
:100F700004EB023204E00A78121FE64C04EB023262
:100F8000C2F804350A78042A06DA0A784FF04023BA
:100F900003EB023205E051E10A78121FDD4B03EB4F
:100FA0000232D2F808354C780122A24093430A78E5
:100FB000042A05DA0A784FF0402404EB023204E0F8
:100FC0000A78121FD34C04EB0232C2F80835E3E072
:100FD0004A79012A6FD10A78042A05DA0A784FF093
:100FE000402303EB023204E00A78121FC94B03EBE3
:100FF0000232D2F804354C780122A24013430A7819
:10100000042A06DA0A784FF0402404EB023205E0A5
:10101000FEE10A78121FBF4C04EB0232C2F804351D
:101020000A78042A05DA0A784FF0402303EB0232EB
:1010300004E00A78121FB74B03EB0232D2F80035F6
:101040004C780122A24093430A78042A05DA0A78F0
:101050004FF0402404EB023204E00A78121FAD4C3A
:1010600004EB0232C2F800350A78042A05DA0A785D
:101070004FF0402303EB023204E00A78121FA54B25
:1010800003EB0232D2F808354C780122A240934398
:101090000A78042A05DA0A784FF0402404EB023279
:1010A00004E00A78121F9B4C04EB0232C2F80835A8
:1010B00072E000E0AAE14A79022A6CD10A78042A97
:1010C00005DA0A784FF0402303EB023204E00A7895
:1010D000121F904B03EB0232D2F808354C780122F4
:1010E000A24013430A78042A05DA0A784FF0402414
:1010F00004EB023204E00A78121F864C04EB023241
:10110000C2F808350A78042A05DA0A784FF0402335
:1011100003EB023204E00A78121F7E4B03EB02322B
:10112000D2F800354C780122A24093430A78042A71
:1011300005DA0A784FF0402404EB023204E00A7822
:10114000121F744C04EB0232C2F800350A78042AEC
:1011500005DA0A784FF0402303EB023204E00A7804
:10116000121F6C4B03EB0232D2F804354C7801228B
:10117000A24093430A78042A05DA0A784FF0402403
:1011800004EB023204E00A78121F624C04EB0232D4
:10119000C2F8043500E0062030BB0A79012A24D1C8
:1011A0000A78042A05DA0A784FF0402303EB02326A
:1011B00004E00A78121F574B03EB0232D2F8FC33DB
:1011C0004C780122A24013430A78042A05DA0A78EF
:1011D0004FF0402404EB023204E00A78121F4D4C19
:1011E00004EB0232C2F8FC3329E00A7922BB0A7808
:1011F000042A05DA0A784FF0402303EB023204E0B8
:101200000A78121F434B03EB0232D2F8FC334C78BE
:101210000122A24093430A78042A05DA0A784FF0A3
:10122000402404EB023204E00A78121F394C04EB2C
:101230000232C2F8FC3302E0082000E0042070BB58
:10124000CA786ABB0A78042A05DA0A784FF0402384
:1012500003EB023204E00A78121F2E4B03EB02323A
:10126000D2F820344C780122A24093430A78042A11
:1012700005DA0A784FF0402404EB023204E00A78E1
:10128000121F244C04EB0232C2F820340A78042ADC
:1012900007DA0A784FF0402303EB023206E0B8E0A9
:1012A00042E00A78121F1B4B03EB0232D2F81C35C6
:1012B0004C780122A24013430A78042A05DA0A78FE
:1012C0004FF0402404EB023204E00A78121F114C64
:1012D00004EB0232C2F81C350A78042A05DA0A78CF
:1012E0004FF0402303EB023204E00A78121F094B4F
:1012F00003EB0232D2F828354C780122A240934306
:101300000A78042A08DA0A784FF0402404EB023203
:1013100007E00000004002400A78121F3D4C04EB39
:101320000232C2F8283574E0CA78012A6CD10A78F2
:10133000042A05DA0A784FF0402303EB023204E076
:101340000A78121F334B03EB0232D2F820344C7868
:101350000122A24093430A78042A05DA0A784FF062
:10136000402404EB023204E00A78121F294C04EBFB
:101370000232C2F820340A78042A05DA0A784FF0DB
:10138000402303EB023204E00A78121F214B03EBE7
:101390000232D2F81C354C780122A24093430A78DD
:1013A000042A05DA0A784FF0402404EB023204E004
:1013B0000A78121F174C04EB0232C2F81C350A7867
:1013C000042A05DA0A784FF0402303EB023204E0E6
:1013D0000A78121F0F4B03EB0232D2F828354C78F3
:1013E0000122A24013430A78042A05DA0A784FF052
:1013F000402404EB023204E00A78121F054C04EB8F
:101400000232C2F8283504E0052002E0032000E0A3
:10141000022010BD0040024030B503460020062BDC
:1014200018DA082914DA8AB1042B04DA4FF04024C0
:1014300004EB033403E01C1F074D05EB0434D4F820
:10144000FC43CC4004F00104147004E0012002E0ED
:10145000032000E0022030BD0040024070B503468A
:101460000020062B44DA082940DA012A1DD1042B7A
:1014700004DA4FF0402404EB033403E01C1F1D4D3D
:1014800005EB0434D4F8FC5301248C402543042B91
:1014900004DA4FF0402404EB033403E01C1F154E24
:1014A00006EB0434C4F8FC5323E0EAB9042B04DA55
:1014B0004FF0402404EB033403E01C1F0D4D05EBFB
:1014C0000434D4F8FC5301248C40A543042B04DAE3
:1014D0004FF0402404EB033403E01C1F054E06EBE1
:1014E0000434C4F8FC5304E0082002E0032000E0C8
:1014F000022070BD0040024070B50025002400BFEE
:1015000016E004EB84000D4901EB8000807801288F
:1015100001D001250EE004EB8401084A02EB8100B2
:10152000FFF7F8F805460DB1012503E0601CC4B2D1
:10153000032CE6DB00BF284670BD000098170000B2
:1015400070B505460026002400BF25E004EB8400AA
:10155000144901EB80008078012801D001261DE0AC
:1015600004EB84000F4901EB8000007CA8420ED1FF
:1015700004EB84020B4603EB8202517804EB8402F5
:1015800013F822000022FFF769FF064606E00EB1BD
:10159000012603E0601CC4B2032CD7DB00BF304639
:1015A00070BD00009817000070B5054600260024A5
:1015B00000BF25E004EB8400144901EB8000807833
:1015C000012801D001261DE004EB84000F4901EB46
:1015D0008000007CA8420ED104EB84020B4603EB92
:1015E0008202517804EB840213F822000122FFF7F3
:1015F00035FF064606E00EB1012603E0601CC4B2CA
:10160000032CD7DB00BF304670BD000098170000E8
:101610001B49096841F47001194A116019491A4AB5
:1016200011671A4911661A4911661A491167002093
:1016300000E0401CB0F57A7FFBD31749124A1166CF
:1016400016491167002000E0401CB0F57A7FFBD3FB
:1016500013490D4A116600BF0B49096D01F04001A5
:101660004029F9D10F49084A11664FF0C07111673E
:10167000002000E0401C42F210718842FAD370470B
:1016800088ED00E01028800700E00F40D13A8E0777
:10169000422D9E0100288001420D9E01000880011C
:1016A000420DDE014205DE0108B5002000900090E9
:1016B00002E00098401C0090024900988842F8D34C
:1016C00008BD0000A086010008B501200090FFF7CA
:1016D00013FFFEF7E3FE56E069460020FEF700FF29
:1016E0009DF8000078B903E069460020FEF7F8FE97
:1016F0009DF800000028F7D0FFF7D6FF22480078B9
:10170000401C2149087020480078052836D2DFE8BF
:1017100000F0030D17212B000020FFF711FF02201E
:10172000FFF70EFF0120FFF70BFF2BE00020FFF774
:101730003BFF0220FFF704FF0120FFF701FF21E03C
:101740000020FFF7FDFE0220FFF72EFF0120FFF72C
:10175000F7FE17E00020FFF7F3FE0220FFF7F0FE90
:101760000120FFF721FF0DE00020FFF71DFF022001
:10177000FFF71AFF0120FFF717FF03E000200249DF
:10178000087000BF00BFA7E7000000204FF04070C6
:10179000E1EE100A704700000501010000000000A2
:1017A0000000000000000000000000000502010031
:1017B0000000000000000000000000000100000028
:1017C0000503010000000000000000000000000010
:1017D00002000000050400000000010000000000FD
:1017E00000000000000000000500000000000100F3
:1017F0000000000000000000010000001C180000B4
:101800000000002010000000A80200002C180000BA
:101810001000002020030000C402000000000000AF
:0C182000000000000000000000000000BC
:040000050000030DE7
:00000001FF
