:020000040000FA
:10000000800300200D03000015030000170300000B
:10001000190300001B0300001D0300000000000086
:100020000000000000000000000000001F030000AE
:10003000210300000000000023030000250300004E
:100040004D05000099050000E5050000310600009F
:100050007D0600003103000033030000350300007B
:1000600037030000390300003B0300003D0300009C
:100070003F0300004103000043030000450300006C
:1000800047030000490300004B030000651C00000B
:100090004F0300005103000053030000550300000C
:1000A00057030000590300005B0300005D030000DC
:1000B0005F03000061030000C90600006503000043
:1000C00067030000690300006B0300006D0300007C
:1000D0006F0300007103000073030000750300004C
:1000E0007703000079030000000000007B0300009C
:1000F0007D0300007F0300008103000083030000F4
:100100008503000087030000890300008B030000C3
:1001100000000000000000008D0300008F030000BD
:100120009103000093030000950300009703000073
:10013000990300009B0300009D0300009F03000043
:1001400000000000000000000000000000000000AF
:10015000A1030000A3030000A5030000A703000003
:10016000000000000000000000000000000000008F
:10017000000000000000000000000000000000007F
:10018000000000000000000000000000000000006F
:10019000000000000000000000000000000000005F
:1001A000000000000000000000000000000000004F
:1001B000A9030000AB030000D11C0000AF03000046
:1001C000B1030000B3030000B5030000B703000053
:1001D000B9030000BB030000BD030000BF03000023
:1001E000C1030000C3030000C503000000000000BD
:1001F00000000000C7030000C9030000CB0300009B
:10020000CD030000CF03000000000000000000004C
:10021000D1030000D3030000D5030000D703000082
:10022000D9030000DB030000DD030000DF03000052
:10023000E1030000E3030000E5030000E703000022
:10024000E9030000EB030000ED030000EF030000F2
:10025000F1030000F3030000F5030000F7030000C2
:10026000F9030000FB030000FD03000000F002F8AA
:1002700000F03CF80AA090E8000C82448344AAF104
:100280000107DA4501D100F031F8AFF2090EBAE802
:100290000F0013F0010F18BFFB1A43F001031847BA
:1002A0001020000030200000103A24BF78C878C128
:1002B000FAD8520724BF30C830C144BF04680C606C
:1002C000704700000023002400250026103A28BFB4
:1002D00078C1FBD8520728BF30C148BF0B607047B8
:1002E0001FB501F0ADFF1FBD10B510BD00F09BF8AC
:1002F0001146FFF7F5FF01F0ABFD00F0B9F803B4CC
:10030000FFF7F2FF03BC00F0C1F800003F48804750
:100310003F480047FEE7FEE7FEE7FEE7FEE7FEE7B1
:10032000FEE7FEE7FEE7FEE7FEE7FEE7FEE7FEE7A5
:10033000FEE7FEE7FEE7FEE7FEE7FEE7FEE7FEE795
:10034000FEE7FEE7FEE7FEE7FEE7FEE7FEE7FEE785
:10035000FEE7FEE7FEE7FEE7FEE7FEE7FEE7FEE775
:10036000FEE7FEE7FEE7FEE7FEE7FEE7FEE7FEE765
:10037000FEE7FEE7FEE7FEE7FEE7FEE7FEE7FEE755
:10038000FEE7FEE7FEE7FEE7FEE7FEE7FEE7FEE745
:10039000FEE7FEE7FEE7FEE7FEE7FEE7FEE7FEE735
:1003A000FEE7FEE7FEE7FEE7FEE7FEE7FEE7FEE725
:1003B000FEE7FEE7FEE7FEE7FEE7FEE7FEE7FEE715
:1003C000FEE7FEE7FEE7FEE7FEE7FEE7FEE7FEE705
:1003D000FEE7FEE7FEE7FEE7FEE7FEE7FEE7FEE7F5
:1003E000FEE7FEE7FEE7FEE7FEE7FEE7FEE7FEE7E5
:1003F000FEE7FEE7FEE7FEE7FEE7FEE7FEE70000BA
:1004000004480549034A054B70470000CD1B000016
:100410006D02000080010020800300208001002088
:10042000704770477047754600F02CF8AE460500DF
:100430006946534620F00700854618B020B5FFF7FF
:10044000DFFFBDE820404FF000064FF000074FF0FF
:1004500000084FF0000B21F00701AC46ACE8C009E2
:10046000ACE8C009ACE8C009ACE8C0098D467047EB
:1004700010B50446AFF300802046BDE81040FFF7FA
:100480003EBF0000004870471C01002001491820B1
:10049000ABBEFEE7260002007047000070B50025E5
:1004A000002400BF15E004EB84000C4901EB800040
:1004B000807808B101250EE004EB8401074A02EBC5
:1004C000810000F027F905460DB1012503E0601C0D
:1004D000C4B2022CE7DB00BF284670BD88220000B2
:1004E0002DE9F04105460E460027002400BF24E018
:1004F00004EB8400144901EB8000807808B10127E7
:100500001DE004EB8400104901EB8000007CA84250
:100510000ED104EB84020B4603EB8202517804EB0C
:10052000840213F82200324600F076FF074606E008
:100530000FB1012703E0601CC4B2022CD8DB00BF5E
:100540003846BDE8F08100008822000010B5002484
:1005500000BF19E00E480068E04000F0010088B1DB
:100560000B48083000680121A140084308490831C0
:100570000860084850F8240018B1064951F82400D2
:10058000804703E0601CC4B2082CE3DB00BF10BD51
:10059000144400402000002010B5002400BF19E0E2
:1005A0000E480068E04000F0010088B10B480830B8
:1005B00000680121A1400843084908310860084843
:1005C00050F8240018B1064951F82400804703E090
:1005D000601CC4B2082CE3DB00BF10BD1454004003
:1005E0004000002010B5002400BF19E00E4800684C
:1005F000E04000F0010088B10B480830006801219C
:10060000A1400843084908310860084850F8240010
:1006100018B1064951F82400804703E0601CC4B2B9
:10062000082CE3DB00BF10BD146400406000002014
:1006300010B5002400BF19E00E480068E04000F04B
:10064000010088B10B48083000680121A14008432F
:10065000084908310860084850F8240018B10649D4
:1006600051F82400804703E0601CC4B2082CE3DB8F
:1006700000BF10BD147400408000002010B500249D
:1006800000BF19E00E480068E04000F0010088B1AA
:100690000B48083000680121A1400843084908318F
:1006A0000860084850F8240018B1064951F82400A1
:1006B000804703E0601CC4B2082CE3DB00BF10BD20
:1006C00014440240A000002010B5002400BF19E02F
:1006D0000E480068E04000F0010088B10B48083087
:1006E00000680121A1400843084908310860084812
:1006F00050F8240018B1064951F82400804703E05F
:10070000601CC4B2082CE3DB00BF10BD14540240CF
:10071000C000002010B50146002009B90120FDE30A
:100720000A78062A7ADA0A78FE4B9A5C012A0CD0FB
:10073000FD4A12680C780123A3401A43FA4B1A6051
:1007400001220B78F74CE25445E0F84B0A78042A72
:1007500005DA0A784FF0402404EB023204E00A780C
:10076000121FF34C04EB0232C2F820350A78042A37
:1007700005DA0A784FF0402303EB023204E00A78EE
:10078000121FEB4B03EB0232D2F824354C780122D6
:10079000A24013430A78042A05DA0A784FF040246D
:1007A00004EB023204E00A78121FE14C04EB02323F
:1007B000C2F8243500230A78042A05DA0A784FF0B3
:1007C000402404EB023204E00A78121FD84C04EBF8
:1007D0000232C2F820354A78082A7BDA8A78002A61
:1007E00079D10A78042A05DA0A784FF0402303EB1E
:1007F000023204E00A78121FCD4B03EB0232D2F82A
:1008000000344C780122A24093430A78042A06DA85
:100810000A784FF0402404EB023205E0F8E30A784E
:10082000121FC34C04EB0232C2F800348A79002A4A
:100830006ED10A78042A05DA0A784FF0402303EBD8
:10084000023204E00A78121FB94B03EB0232D2F8ED
:100850000C354C780122A24013430A78042A05DAA9
:100860000A784FF0402404EB023204E00A78121FA9
:10087000AF4C04EB0232C2F80C350A78042A05DAD0
:100880000A784FF0402303EB023204E00A78121F8B
:10089000A74B03EB0232D2F810354C780122A2406C
:1008A00093430A78042A05DA0A784FF0402404EBCF
:1008B000023204E00A78121F9D4C04EB0232C2F8A7
:1008C00010350A78042A07DA0A784FF0402303EB40
:1008D000023206E0EEE3DDE20A78121F944B03EBEE
:1008E0000232D2F814354C780122A24093430A78A0
:1008F000042A05DA0A784FF0402404EB023204E0BF
:100900000A78121F8A4C04EB0232C2F81435E0E078
:100910008A79012A6CD10A78042A05DA0A784FF01C
:10092000402303EB023204E00A78121F804B03EBF2
:100930000232D2F810354C780122A24013430A78D3
:10094000042A05DA0A784FF0402404EB023204E06E
:100950000A78121F764C04EB0232C2F810350A787E
:10096000042A05DA0A784FF0402303EB023204E050
:100970000A78121F6E4B03EB0232D2F80C354C781A
:100980000122A24093430A78042A05DA0A784FF03C
:10099000402404EB023204E00A78121F644C04EB9A
:1009A0000232C2F80C350A78042A05DA0A784FF0C8
:1009B000402303EB023204E00A78121F5C4B03EB86
:1009C0000232D2F814354C780122A24093430A78BF
:1009D000042A05DA0A784FF0402404EB023204E0DE
:1009E0000A78121F524C04EB0232C2F8143570E040
:1009F0008A79022A6CD10A78042A05DA0A784FF03B
:100A0000402303EB023204E00A78121F484B03EB49
:100A10000232D2F814354C780122A24013430A78EE
:100A2000042A05DA0A784FF0402404EB023204E08D
:100A30000A78121F3E4C04EB0232C2F814350A78D1
:100A4000042A05DA0A784FF0402303EB023204E06F
:100A50000A78121F364B03EB0232D2F80C354C7871
:100A60000122A24093430A78042A05DA0A784FF05B
:100A7000402404EB023204E00A78121F2C4C04EBF1
:100A80000232C2F80C350A78042A05DA0A784FF0E7
:100A9000402303EB023204E00A78121F244B03EBDD
:100AA0000232D2F810354C780122A24093430A78E2
:100AB000042A05DA0A784FF0402404EB023204E0FD
:100AC0000A78121F1A4C04EB0232C2F8103500E00B
:100AD0000720002805D1CA79012AFBD1CA680AB9C2
:100AE0000A20ACE30A7A052A7ADA0A78042A05DAB7
:100AF0000A784FF0402303EB023204E00A78121F19
:100B00000B4B03EB0232D2F810344C780122A24096
:100B100093430A78042A0DDA0A784FF0402404EB54
:100B200002320CE00C00002008E60F404B434F4C13
:100B3000004002400A78121FFA4C04EB0232C2F85D
:100B400010340B78F84C04EB43134C78CA6843F824
:100B500024200A7A032A7BDA0A78042A05DA0A783A
:100B60004FF0402303EB023204E00A78121FED4BF2
:100B700003EB0232D2F804344C780122A2409343B2
:100B80000A78042A05DA0A784FF0402404EB02328E
:100B900004E00A78121FE34C04EB0232C2F804347A
:100BA0000A7A022A25D10A78042A05DA0A784FF04F
:100BB000402303EB023204E00A78121FD94B03EB07
:100BC0000232D2F808344C780122A24013430A784A
:100BD000042A06DA0A784FF0402404EB023205E0DA
:100BE00056E10A78121FCF4C04EB0232C2F80834E7
:100BF00025E30A7A6ABB0A78042A05DA0A784FF0F4
:100C0000402303EB023204E00A78121FC54B03EBCA
:100C10000232D2F808344C780122A24093430A7879
:100C2000042A05DA0A784FF0402404EB023204E08B
:100C30000A78121FBB4C04EB0232C2F808340A785F
:100C4000042A07DA0A784FF0402303EB023206E069
:100C500065E01BE00A78121FB24B03EB0232D2F8B8
:100C60000C344C780122A24093430A78042A05DA16
:100C70000A784FF0402404EB023204E00A78121F95
:100C8000A84C04EB0232C2F80C34D8E20A78042AE9
:100C900005DA0A784FF0402303EB023204E00A78C9
:100CA000121FA04B03EB0232D2F808344C78012219
:100CB000A24093430A78042A05DA0A784FF04024C8
:100CC00004EB023204E00A78121F964C04EB023265
:100CD000C2F808340A78042A05DA0A784FF040236B
:100CE00003EB023204E00A78121F8E4B03EB023250
:100CF000D2F80C344C780122A24013430A78042A1B
:100D000005DA0A784FF0402404EB023204E00A7856
:100D1000121F844C04EB0232C2F80C348FE20A78C2
:100D2000042A05DA0A784FF0402303EB023204E08C
:100D30000A78121F7B4B03EB0232D2F804344C7852
:100D40000122A24013430A78042A05DA0A784FF0F8
:100D5000402404EB023204E00A78121F714C04EBC9
:100D60000232C2F804340A7A032A48D10A78042AE3
:100D700005DA0A784FF0402303EB023204E00A78E8
:100D8000121F684B03EB0232D2F808344C78012270
:100D9000A24093430A78042A05DA0A784FF04024E7
:100DA00004EB023204E00A78121F5E4C04EB0232BC
:100DB000C2F808340A78042A05DA0A784FF040238A
:100DC00003EB023204E00A78121F564B03EB0232A7
:100DD000D2F80C344C780122A24093430A78042ABA
:100DE00005DA0A784FF0402404EB023204E00A7876
:100DF000121F4C4C04EB0232C2F80C341FE20A788A
:100E0000042A05DA0A784FF0402303EB023204E0AB
:100E10000A78121F434B03EB0232D2F808344C78A5
:100E20000122A24093430A78042A05DA0A784FF097
:100E3000402404EB023204E00A78121F394C04EB20
:100E40000232C2F808340A78042A05DA0A784FF028
:100E5000402303EB023204E00A78121F314B03EB0C
:100E60000232D2F80C344C780122A24013430A78A3
:100E7000042A05DA0A784FF0402404EB023204E039
:100E80000A78121F274C04EB0232C2F80C34D6E168
:100E90000920D4E18A78012A7DD10A78042A05DA6A
:100EA0000A784FF0402303EB023204E00A78121F65
:100EB0001C4B03EB0232D2F800344C780122A240E2
:100EC00013430A78042A05DA0A784FF0402404EB29
:100ED000023204E00A78121F124C04EB0232C2F80C
:100EE00000344A7992BB0A78042A05DA0A784FF06E
:100EF000402303EB023204E00A78121F094B03EB94
:100F00000232D2F800354C780122A24013430A780D
:100F1000042A0BDA0A784FF0402400E0BFE104EB2A
:100F2000023208E000400240200000200A78121F30
:100F3000F84C04EB0232C2F800350A78042A06DACB
:100F40000A784FF0402303EB023205E040E00A78D4
:100F5000121FF04B03EB0232D2F804354C78012219
:100F6000A24093430A78042A05DA0A784FF0402415
:100F700004EB023204E00A78121FE64C04EB023262
:100F8000C2F804350A78042A06DA0A784FF04023BA
:100F900003EB023205E051E10A78121FDD4B03EB4F
:100FA0000232D2F808354C780122A24093430A78E5
:100FB000042A05DA0A784FF0402404EB023204E0F8
:100FC0000A78121FD34C04EB0232C2F80835E3E072
:100FD0004A79012A6FD10A78042A05DA0A784FF093
:100FE000402303EB023204E00A78121FC94B03EBE3
:100FF0000232D2F804354C780122A24013430A7819
:10100000042A06DA0A784FF0402404EB023205E0A5
:10101000FEE10A78121FBF4C04EB0232C2F804351D
:101020000A78042A05DA0A784FF0402303EB0232EB
:1010300004E00A78121FB74B03EB0232D2F80035F6
:101040004C780122A24093430A78042A05DA0A78F0
:101050004FF0402404EB023204E00A78121FAD4C3A
:1010600004EB0232C2F800350A78042A05DA0A785D
:101070004FF0402303EB023204E00A78121FA54B25
:1010800003EB0232D2F808354C780122A240934398
:101090000A78042A05DA0A784FF0402404EB023279
:1010A00004E00A78121F9B4C04EB0232C2F80835A8
:1010B00072E000E0AAE14A79022A6CD10A78042A97
:1010C00005DA0A784FF0402303EB023204E00A7895
:1010D000121F904B03EB0232D2F808354C780122F4
:1010E000A24013430A78042A05DA0A784FF0402414
:1010F00004EB023204E00A78121F864C04EB023241
:10110000C2F808350A78042A05DA0A784FF0402335
:1011100003EB023204E00A78121F7E4B03EB02322B
:10112000D2F800354C780122A24093430A78042A71
:1011300005DA0A784FF0402404EB023204E00A7822
:10114000121F744C04EB0232C2F800350A78042AEC
:1011500005DA0A784FF0402303EB023204E00A7804
:10116000121F6C4B03EB0232D2F804354C7801228B
:10117000A24093430A78042A05DA0A784FF0402403
:1011800004EB023204E00A78121F624C04EB0232D4
:10119000C2F8043500E0062030BB0A79012A24D1C8
:1011A0000A78042A05DA0A784FF0402303EB02326A
:1011B00004E00A78121F574B03EB0232D2F8FC33DB
:1011C0004C780122A24013430A78042A05DA0A78EF
:1011D0004FF0402404EB023204E00A78121F4D4C19
:1011E00004EB0232C2F8FC3329E00A7922BB0A7808
:1011F000042A05DA0A784FF0402303EB023204E0B8
:101200000A78121F434B03EB0232D2F8FC334C78BE
:101210000122A24093430A78042A05DA0A784FF0A3
:10122000402404EB023204E00A78121F394C04EB2C
:101230000232C2F8FC3302E0082000E0042070BB58
:10124000CA786ABB0A78042A05DA0A784FF0402384
:1012500003EB023204E00A78121F2E4B03EB02323A
:10126000D2F820344C780122A24093430A78042A11
:1012700005DA0A784FF0402404EB023204E00A78E1
:10128000121F244C04EB0232C2F820340A78042ADC
:1012900007DA0A784FF0402303EB023206E0B8E0A9
:1012A00042E00A78121F1B4B03EB0232D2F81C35C6
:1012B0004C780122A24013430A78042A05DA0A78FE
:1012C0004FF0402404EB023204E00A78121F114C64
:1012D00004EB0232C2F81C350A78042A05DA0A78CF
:1012E0004FF0402303EB023204E00A78121F094B4F
:1012F00003EB0232D2F828354C780122A240934306
:101300000A78042A08DA0A784FF0402404EB023203
:1013100007E00000004002400A78121F3D4C04EB39
:101320000232C2F8283574E0CA78012A6CD10A78F2
:10133000042A05DA0A784FF0402303EB023204E076
:101340000A78121F334B03EB0232D2F820344C7868
:101350000122A24093430A78042A05DA0A784FF062
:10136000402404EB023204E00A78121F294C04EBFB
:101370000232C2F820340A78042A05DA0A784FF0DB
:10138000402303EB023204E00A78121F214B03EBE7
:101390000232D2F81C354C780122A24093430A78DD
:1013A000042A05DA0A784FF0402404EB023204E004
:1013B0000A78121F174C04EB0232C2F81C350A7867
:1013C000042A05DA0A784FF0402303EB023204E0E6
:1013D0000A78121F0F4B03EB0232D2F828354C78F3
:1013E0000122A24013430A78042A05DA0A784FF052
:1013F000402404EB023204E00A78121F054C04EB8F
:101400000232C2F8283504E0052002E0032000E0A3
:10141000022010BD0040024030B503460020062BDC
:1014200018DA082914DA8AB1042B04DA4FF04024C0
:1014300004EB033403E01C1F074D05EB0434D4F820
:10144000FC43CC4004F00104147004E0012002E0ED
:10145000032000E0022030BD0040024030B50246CB
:101460000020062A21DA08291DDA042A04DA4FF0BE
:10147000402303EB023303E0131F0D4C04EB033353
:10148000D3F8FC4301238B405C40042A04DA4FF07C
:10149000402303EB023303E0131F054D05EB033339
:1014A000C3F8FC4302E0032000E0022030BD00004E
:1014B0000040024070B503460020062B44DA08299C
:1014C00040DA012A1DD1042B04DA4FF0402404EB4A
:1014D000033403E01C1F1D4D05EB0434D4F8FC530A
:1014E00001248C402543042B04DA4FF0402404EB04
:1014F000033403E01C1F154E06EB0434C4F8FC5300
:1015000023E0EAB9042B04DA4FF0402404EB03345F
:1015100003E01C1F0D4D05EB0434D4F8FC530124EB
:101520008C40A543042B04DA4FF0402404EB033431
:1015300003E01C1F054E06EB0434C4F8FC5304E022
:10154000082002E0032000E0022070BD00400240BD
:1015500010B5014600220C293EDA082903DA20489A
:1015600000EB013004E0A1F108001E4B03EB00305A
:10157000806900F0010008B105222EE0082903DA95
:10158000174800EB013004E0A1F10800154B03EB14
:101590000030806940F00103082903DA104800EBAD
:1015A000013004E0A1F108000E4C04EB003083612F
:1015B0005E2000280DDB00BF00BF00F01F040123E8
:1015C000A3404409A40004F1E024C4F8003100BFA2
:1015D00000BF00BF62B600E00122104610BD00004F
:1015E0000000034000C0044030B5024600201178DE
:1015F0000AB90420B9E00C2975DA5C4B5B5C002B5E
:1016000072D1062907DA5A4B1B6801248C40234308
:10161000574C236009E0564B58331B688C1F01253B
:10162000A5402B43524C58342360082903DA514B10
:1016300003EB013304E0A1F108034F4C04EB033347
:10164000DB6823F00104082903DA4A4B03EB01337A
:1016500004E0A1F10803484D05EB0333DC60537847
:10166000062B7DDA5378022B70DA93786BB9042459
:10167000082903DA3F4B03EB013304E0A1F108032F
:101680003D4D05EB03331C6011E09378012B0DD128
:101690000024082903DA374B03EB013304E0A1F1FE
:1016A0000803354D05EB03331C6000E003200028E0
:1016B0005BD153786BB90124082903DA2D4B03EB76
:1016C000013304E0A1F108032B4D05EB03335C600B
:1016D00011E05378012B0ED10224082905DA254B9D
:1016E00003EB013306E03FE03CE0A1F10803224DAB
:1016F00005EB03335C60D378012B21D153680BB920
:1017000006201DE0082903DA1A4B03EB013304E03D
:10171000A1F10803184C04EB03339B6923F0010487
:10172000082903DA134B03EB013304E0A1F10803AA
:10173000114D05EB03339C61104C536844F8213084
:1017400001230A4C635410E00AE0FFE75378022BB0
:101750000BD05378032B08D05378042B05D004E02A
:10176000022002E0052000E0012030BDE000002062
:1017700004E60F400000034000C00440EC000020DD
:101780002DE9F04104460D46164600270C2C2EDAB2
:10179000082C03DA184800EB043004E0A4F1080038
:1017A000164901EB0030806900F0010018B11448BF
:1017B000005D012801D005271AE0002011490880AA
:1017C000114908801149087005FB06F0642190FB5F
:1017D000F1F00C49088008460088281A0A49088058
:1017E000012208460188204600F012F800E0012797
:1017F0003846BDE8F08100000000034000C004400E
:10180000E00000201A0000201C0000201E00002024
:101810002DE9F0412DED0A8B04460E4615460027B2
:101820009FED7E0BB0EE408AF0EE608A9FED7D0B5F
:10183000B0EE409AF0EE609A0C2C78DA7B48005DAE
:10184000012875D1032D74DA35BB304600F091FCC8
:1018500041EC1C0B9FED760B53EC102B00F004FBBE
:1018600041EC1B0B53EC1B2B9FED730B51EC100B3E
:1018700000F0FAFA41EC1A0B00F04EFC0146082C7D
:1018800003DA6F4800EB043004E0A4F108006D4A6D
:1018900002EB0030816244E0012D24D1304600F09B
:1018A00068FC41EC1B0B9FED680B53EC102B00F018
:1018B000DBFA41EC1A0B53EC182B00F0D5FA41EC93
:1018C000190B51EC190B00F027FC0146082C03DA28
:1018D0005B4800EB043004E0A4F10800594A02EB35
:1018E000003081621DE0304600F043FC41EC1B0BF0
:1018F00053EC1B2B9FED500B51EC100B00F0B4FA86
:1019000041EC1A0B00F008FC0146082C03DA4C48A5
:1019100000EB043004E0A4F108004A4A02EB003076
:101920008162082C06DA464800EB043007E06FE0DD
:101930006CE069E0A4F10800424901EB00308069E5
:1019400000F00100D0B1082C03DA3D4800EB043070
:1019500004E0A4F108003B4901EB0030C06840F00E
:101960000101082C03DA364800EB043004E0A4F14E
:101970000800344A02EB0030C1604AE0082C03DA68
:101980002F4800EB043004E0A4F108002D4901EBDE
:101990000030C06840F00101082C03DA284800EB51
:1019A000043004E0A4F10800264A02EB0030C160D4
:1019B00000BF082C03DA224800EB043004E0A4F155
:1019C0000800204901EB0030C06900F00100002848
:1019D000EFD0082C03DA1A4800EB043004E0A4F13D
:1019E0000800184901EB0030406A40F00101082C62
:1019F00003DA134800EB043004E0A4F10800114AB4
:101A000002EB0030416204E0072702E0052700E016
:101A100001273846BDEC0A8BBDE8F0818DEDB5A0FD
:101A2000F7C6703E0000000000000000E00000204B
:101A30000000000080842E410000000080846E4180
:101A40000000034000C004400000000000408F4040
:101A500010B5014600200C2928DA082903DA144AB7
:101A600002EB013204E0A1F10802124B03EB023257
:101A7000D26822F00103082903DA0D4A02EB013291
:101A800004E0A1F108020B4C04EB0232D3604FF0EA
:101A9000FF33082903DA064A02EB013204E0A1F120
:101AA0000802044C04EB0232936200E0012010BDF6
:101AB0000000034000C0044070B50025002400BFB2
:101AC00016E004EB84000D4901EB800080780128CA
:101AD00001D001250EE004EB8401084A02EB8100ED
:101AE000FEF718FE05460DB1012503E0601CC4B2E7
:101AF000032CE6DB00BF284670BD00004C2200002E
:101B000070B505460026002400BF25E004EB8400E4
:101B1000144901EB80008078012801D001261DE0E6
:101B200004EB84000F4901EB8000007CA8420ED139
:101B300004EB84020B4603EB8202517804EB84022F
:101B400013F822000022FFF7B5FC064606E00EB1AE
:101B5000012603E0601CC4B2032CD7DB00BF304673
:101B600070BD00004C22000070B505460026002420
:101B700000BF24E004EB8400134901EB800080786F
:101B8000012801D001261CE004EB84000E4901EB82
:101B90008000007CA8420DD104EB84020B4603EBCD
:101BA0008202517804EB840213F82200FFF756FCFE
:101BB000064606E00EB1012603E0601CC4B2032C09
:101BC000D8DB00BF304670BD4C2200001B490968BD
:101BD00041F47001194A116019491A4A11671A49EA
:101BE00011661A4911661A491167002000E0401C6D
:101BF000B0F57A7FFBD31749124A1166164911676F
:101C0000002000E0401CB0F57A7FFBD313490D4A59
:101C1000116600BF0B49096D01F040014029F9D15F
:101C20000F49084A11664FF0C0711167002000E0AB
:101C3000401C42F210718842FAD3704788ED00E0F0
:101C40001028800700E00F40D13A8E07422D9E01F8
:101C500000288001420D9E0100088001420DDE0136
:101C60004205DE0110B51548006828B31448C06865
:101C700020F001001249C8601049086880471048E8
:101C8000406A40F001000E4948620E480078012881
:101C900009D101220C4801880020FFF7B9FD00207E
:101CA0000849087008E00122084801880020FFF771
:101CB000AFFD01200349087010BD0000EC000020BA
:101CC000000003401E0000201C0000201A0000201D
:101CD00010B51348806910B31149886980471148CD
:101CE000406A40F001000F4948620620FFF7B0FE4D
:101CF0000D480078012809D101220C4801880620EE
:101D0000FFF786FD00200849087008E00122084816
:101D100001880620FFF77CFD01200349087010BDF3
:101D2000EC000020006003401E0000201C0000208A
:101D30001A00002010B5FFF7BFFEFEF7AFFB034807
:101D4000FFF752FC0620FFF703FC10BD0400002043
:101D500008B50120009066E069460020FEF7C0FB50
:101D60009DF8000098B903E069460020FEF7B8FB33
:101D70009DF800000028F7D000F05AF801202A4909
:101D800008702A480078401C284908704BE0274812
:101D90000078002847D025480078012810D1224833
:101DA000007801283FD10220FFF7AAFE1E224FF43F
:101DB000FA710620FFF7E4FC00201B49087032E0AE
:101DC0001A480078022810D11748007801282AD133
:101DD0000220FFF795FE3C224FF4FA710620FFF730
:101DE000CFFC0020104908701DE01048007803283F
:101DF00010D10D480078012815D10220FFF780FE90
:101E00005A224FF4FA710620FFF7BAFC0020064967
:101E1000087008E00620FFF71BFE0220FFF770FEA7
:101E200000200249087097E7010000200000002010
:101E300008B500200090009002E00098401C00903F
:101E4000024900988842F8D308BD0000A08601002E
:101E500010B5FFF76FFFFFF77BFF002010BD10B537
:101E60000220FFF781FE10BD2DE9C04130B4DFF83C
:101E7000A0C23CEA111418BF3CEA131400F0EC8035
:101E800081EA03051CEA111444EAD57418BF1CEA60
:101E9000131500F0C780A4EB05044FF0004545EA98
:101EA000C12145EAC32341EA505143EA525304F1A8
:101EB0007F74994204F500344FEAC0204FEAC222F1
:101EC00008BF904200F09C804FEA13650FF2401665
:101ED000765D4FEA134506FB05F7C7F1807706FBF1
:101EE00007F74FEAD737A7FB03687642C8F5803873
:101EF000A7FB06CE38BFA8F1010807FB08E64FF0A4
:101F0000000EA6FB028CE6FB03CEDCF1000CCEF14A
:101F1000004E38BFAEF1010EA6FB0C584FF0000783
:101F20004FF00005E6FB0E87A1FB08C6A0FB07CE1D
:101F300016EB0E0645F10005E1FB076515F1E04ED5
:101F40007EBFA4F580345FEA46066D4116F1800736
:101F500045F100054FEA17274FEA066647EA05678D
:101F6000A6F1DE46B6F1805F4FEA15251FD9384647
:101F700024F0010C05EBC471BCF1FE6F01EB0C11F8
:101F800002D8F0BCBDE8008124425CBF01F5801E90
:101F90009EEAC47F02D4F0BCBDE80081244238D45C
:101FA000F0BCA1F1C041BDE8004100F043B94FEAE7
:101FB000D22242EA43524FEAD323A7FB02864FEADA
:101FC000D02040EA415007FB03661EEA0E0F4FEA9D
:101FD000D12105FB026658BFA6EB0056B6EB0056B2
:101FE0004FEA520E4EEAC37E18EB0E0E56EB530E1E
:101FF000BDD518EB02085E417F1C55F10005B6E720
:102000004FF480154FF000074FF000064FF0000826
:10201000ADE7F0BC4FF0000001F1C04101F000411C
:10202000BDE8008111EA0C1F0CEA131500D00CE08A
:1020300013EA0C1F00F025804FF00000F0BC81EA8D
:10204000030101F00041BDE80081F0BCBDE80041A2
:1020500081EA030100F0EEB8F0BCBDE8004170B5C4
:1020600000F09AF8097EFC3E00F007B881EA03010F
:102070004FF0000001F00041704781EA030100F0D9
:10208000D9B8F0BCBDE800414FF0000021497047CD
:10209000FFFDFBF9F7F5F4F2F0EEEDEBE9E8E6E42D
:1020A000E3E1E0DEDDDBDAD8D7D5D4D3D1D0CFCDB4
:1020B000CCCBCAC8C7C6C5C4C2C1C0BFBEBDBCBBED
:1020C000BAB9B8B7B6B5B4B3B2B1B0AFAEADACABE8
:1020D000AAA9A8A8A7A6A5A4A3A3A2A1A09F9F9EC2
:1020E0009D9C9C9B9A999998979796959594939374
:1020F000929191908F8F8E8E8D8C8C8B8B8A89890B
:10210000888887878685858484838382828181808D
:102110000000FF070000F87F4FEA1153A3F580632A
:10212000D3F11E03A8BFD3F1200C08DB4FF000420F
:1021300042EAC12252EA505232FA03F07047094291
:102140000BD4102BC4BF0020704703F5787CBCF182
:10215000FF3F05D04FF0FF3070474FF00000704751
:1021600070B500F019F800BF499224800020704734
:10217000F0E7B0FA80F310FA03F10AD0C3F11D03BF
:1021800003F580634FEA41504FEA035202EBD1213D
:1021900070474FF0000070470EF1020E2EF0030E54
:1021A0005EF8046B364205D4012A43EB030515F5AE
:1021B000001F12D8012841EB010C1CF5001F0CD8A0
:1021C0000ED14FEAD17C15F5001F0CEB4C0C0CF135
:1021D000020C08BF4CEBD37C04E04FF0080C01E08C
:1021E0004FEAD37C0CEB4C0526FA05F606F0070601
:1021F000B6F1040C06D20EEB860CBDE870404CF034
:10220000010C6047DFE80CF0090B02024FF00041BF
:102210004FF00000A1F5002170BD194610460128BD
:1022200051EB010418BFD4F5001484BF002001F065
:10223000004170BD0808A0F500114FEA3101704758
:102240004FF04070E1EE100A7047000005010100F8
:10225000000000000000000000000000000000007E
:102260000502010000000000000000000000000066
:102270000100000005030100000000000000000054
:102280000000000002000000050400000000010042
:102290000000000000000000000000000500000039
:1022A000000001000000000000000000010000002C
:1022B000D02200000000002020000000A802000042
:1022C000F02200002000002060030000C402000093
:1022D00000000000060000015F1E0000000000007A
:1022E00000000000000000000000000000000000EE
:040000050000030DE7
:00000001FF
